{
  "contractName": "MiniBar",
  "abi": [
    {
      "inputs": [],
      "stateMutability": "payable",
      "type": "constructor",
      "payable": true
    },
    {
      "anonymous": false,
      "inputs": [
        {
          "indexed": true,
          "internalType": "address",
          "name": "account",
          "type": "address"
        },
        {
          "indexed": true,
          "internalType": "address",
          "name": "operator",
          "type": "address"
        },
        {
          "indexed": false,
          "internalType": "bool",
          "name": "approved",
          "type": "bool"
        }
      ],
      "name": "ApprovalForAll",
      "type": "event"
    },
    {
      "anonymous": false,
      "inputs": [
        {
          "indexed": true,
          "internalType": "address",
          "name": "previousOwner",
          "type": "address"
        },
        {
          "indexed": true,
          "internalType": "address",
          "name": "newOwner",
          "type": "address"
        }
      ],
      "name": "OwnershipTransferred",
      "type": "event"
    },
    {
      "anonymous": false,
      "inputs": [
        {
          "indexed": true,
          "internalType": "address",
          "name": "operator",
          "type": "address"
        },
        {
          "indexed": true,
          "internalType": "address",
          "name": "from",
          "type": "address"
        },
        {
          "indexed": true,
          "internalType": "address",
          "name": "to",
          "type": "address"
        },
        {
          "indexed": false,
          "internalType": "uint256[]",
          "name": "ids",
          "type": "uint256[]"
        },
        {
          "indexed": false,
          "internalType": "uint256[]",
          "name": "values",
          "type": "uint256[]"
        }
      ],
      "name": "TransferBatch",
      "type": "event"
    },
    {
      "anonymous": false,
      "inputs": [
        {
          "indexed": true,
          "internalType": "address",
          "name": "operator",
          "type": "address"
        },
        {
          "indexed": true,
          "internalType": "address",
          "name": "from",
          "type": "address"
        },
        {
          "indexed": true,
          "internalType": "address",
          "name": "to",
          "type": "address"
        },
        {
          "indexed": false,
          "internalType": "uint256",
          "name": "id",
          "type": "uint256"
        },
        {
          "indexed": false,
          "internalType": "uint256",
          "name": "value",
          "type": "uint256"
        }
      ],
      "name": "TransferSingle",
      "type": "event"
    },
    {
      "anonymous": false,
      "inputs": [
        {
          "indexed": false,
          "internalType": "string",
          "name": "value",
          "type": "string"
        },
        {
          "indexed": true,
          "internalType": "uint256",
          "name": "id",
          "type": "uint256"
        }
      ],
      "name": "URI",
      "type": "event"
    },
    {
      "inputs": [
        {
          "internalType": "address",
          "name": "account",
          "type": "address"
        },
        {
          "internalType": "uint256",
          "name": "id",
          "type": "uint256"
        }
      ],
      "name": "balanceOf",
      "outputs": [
        {
          "internalType": "uint256",
          "name": "",
          "type": "uint256"
        }
      ],
      "stateMutability": "view",
      "type": "function",
      "constant": true
    },
    {
      "inputs": [
        {
          "internalType": "address[]",
          "name": "accounts",
          "type": "address[]"
        },
        {
          "internalType": "uint256[]",
          "name": "ids",
          "type": "uint256[]"
        }
      ],
      "name": "balanceOfBatch",
      "outputs": [
        {
          "internalType": "uint256[]",
          "name": "",
          "type": "uint256[]"
        }
      ],
      "stateMutability": "view",
      "type": "function",
      "constant": true
    },
    {
      "inputs": [
        {
          "internalType": "address",
          "name": "",
          "type": "address"
        }
      ],
      "name": "comensales",
      "outputs": [
        {
          "internalType": "uint256",
          "name": "",
          "type": "uint256"
        }
      ],
      "stateMutability": "view",
      "type": "function",
      "constant": true
    },
    {
      "inputs": [
        {
          "internalType": "address",
          "name": "account",
          "type": "address"
        },
        {
          "internalType": "address",
          "name": "operator",
          "type": "address"
        }
      ],
      "name": "isApprovedForAll",
      "outputs": [
        {
          "internalType": "bool",
          "name": "",
          "type": "bool"
        }
      ],
      "stateMutability": "view",
      "type": "function",
      "constant": true
    },
    {
      "inputs": [
        {
          "internalType": "uint256",
          "name": "",
          "type": "uint256"
        }
      ],
      "name": "menus_en_venta",
      "outputs": [
        {
          "internalType": "uint256",
          "name": "",
          "type": "uint256"
        }
      ],
      "stateMutability": "view",
      "type": "function",
      "constant": true
    },
    {
      "inputs": [
        {
          "internalType": "uint256",
          "name": "",
          "type": "uint256"
        }
      ],
      "name": "menus_vendidos",
      "outputs": [
        {
          "internalType": "uint256",
          "name": "",
          "type": "uint256"
        }
      ],
      "stateMutability": "view",
      "type": "function",
      "constant": true
    },
    {
      "inputs": [],
      "name": "numero_1",
      "outputs": [
        {
          "internalType": "uint256",
          "name": "",
          "type": "uint256"
        }
      ],
      "stateMutability": "view",
      "type": "function",
      "constant": true
    },
    {
      "inputs": [],
      "name": "numero_2",
      "outputs": [
        {
          "internalType": "uint256",
          "name": "",
          "type": "uint256"
        }
      ],
      "stateMutability": "view",
      "type": "function",
      "constant": true
    },
    {
      "inputs": [],
      "name": "numero_3",
      "outputs": [
        {
          "internalType": "uint256",
          "name": "",
          "type": "uint256"
        }
      ],
      "stateMutability": "view",
      "type": "function",
      "constant": true
    },
    {
      "inputs": [],
      "name": "numero_4",
      "outputs": [
        {
          "internalType": "uint256",
          "name": "",
          "type": "uint256"
        }
      ],
      "stateMutability": "view",
      "type": "function",
      "constant": true
    },
    {
      "inputs": [],
      "name": "numero_5",
      "outputs": [
        {
          "internalType": "uint256",
          "name": "",
          "type": "uint256"
        }
      ],
      "stateMutability": "view",
      "type": "function",
      "constant": true
    },
    {
      "inputs": [],
      "name": "owner",
      "outputs": [
        {
          "internalType": "address",
          "name": "",
          "type": "address"
        }
      ],
      "stateMutability": "view",
      "type": "function",
      "constant": true
    },
    {
      "inputs": [],
      "name": "precioFabrica",
      "outputs": [
        {
          "internalType": "uint256",
          "name": "",
          "type": "uint256"
        }
      ],
      "stateMutability": "view",
      "type": "function",
      "constant": true
    },
    {
      "inputs": [],
      "name": "precioPublico",
      "outputs": [
        {
          "internalType": "uint256",
          "name": "",
          "type": "uint256"
        }
      ],
      "stateMutability": "view",
      "type": "function",
      "constant": true
    },
    {
      "inputs": [],
      "name": "proveedor",
      "outputs": [
        {
          "internalType": "address payable",
          "name": "",
          "type": "address"
        }
      ],
      "stateMutability": "view",
      "type": "function",
      "constant": true
    },
    {
      "inputs": [],
      "name": "renounceOwnership",
      "outputs": [],
      "stateMutability": "nonpayable",
      "type": "function"
    },
    {
      "inputs": [
        {
          "internalType": "address",
          "name": "from",
          "type": "address"
        },
        {
          "internalType": "address",
          "name": "to",
          "type": "address"
        },
        {
          "internalType": "uint256[]",
          "name": "ids",
          "type": "uint256[]"
        },
        {
          "internalType": "uint256[]",
          "name": "amounts",
          "type": "uint256[]"
        },
        {
          "internalType": "bytes",
          "name": "data",
          "type": "bytes"
        }
      ],
      "name": "safeBatchTransferFrom",
      "outputs": [],
      "stateMutability": "nonpayable",
      "type": "function"
    },
    {
      "inputs": [
        {
          "internalType": "address",
          "name": "from",
          "type": "address"
        },
        {
          "internalType": "address",
          "name": "to",
          "type": "address"
        },
        {
          "internalType": "uint256",
          "name": "id",
          "type": "uint256"
        },
        {
          "internalType": "uint256",
          "name": "amount",
          "type": "uint256"
        },
        {
          "internalType": "bytes",
          "name": "data",
          "type": "bytes"
        }
      ],
      "name": "safeTransferFrom",
      "outputs": [],
      "stateMutability": "nonpayable",
      "type": "function"
    },
    {
      "inputs": [
        {
          "internalType": "address",
          "name": "operator",
          "type": "address"
        },
        {
          "internalType": "bool",
          "name": "approved",
          "type": "bool"
        }
      ],
      "name": "setApprovalForAll",
      "outputs": [],
      "stateMutability": "nonpayable",
      "type": "function"
    },
    {
      "inputs": [
        {
          "internalType": "bytes4",
          "name": "interfaceId",
          "type": "bytes4"
        }
      ],
      "name": "supportsInterface",
      "outputs": [
        {
          "internalType": "bool",
          "name": "",
          "type": "bool"
        }
      ],
      "stateMutability": "view",
      "type": "function",
      "constant": true
    },
    {
      "inputs": [
        {
          "internalType": "address",
          "name": "newOwner",
          "type": "address"
        }
      ],
      "name": "transferOwnership",
      "outputs": [],
      "stateMutability": "nonpayable",
      "type": "function"
    },
    {
      "inputs": [
        {
          "internalType": "uint256",
          "name": "",
          "type": "uint256"
        }
      ],
      "name": "uri_menu",
      "outputs": [
        {
          "internalType": "string",
          "name": "",
          "type": "string"
        }
      ],
      "stateMutability": "view",
      "type": "function",
      "constant": true
    },
    {
      "inputs": [
        {
          "internalType": "uint256",
          "name": "menu_a_crear",
          "type": "uint256"
        },
        {
          "internalType": "uint256",
          "name": "cantidad_a_crear",
          "type": "uint256"
        }
      ],
      "name": "crear_menu",
      "outputs": [],
      "stateMutability": "payable",
      "type": "function",
      "payable": true
    },
    {
      "inputs": [
        {
          "internalType": "uint256",
          "name": "menu",
          "type": "uint256"
        },
        {
          "internalType": "uint256",
          "name": "cantidad",
          "type": "uint256"
        }
      ],
      "name": "vender_menu",
      "outputs": [],
      "stateMutability": "payable",
      "type": "function",
      "payable": true
    },
    {
      "inputs": [
        {
          "internalType": "address",
          "name": "operator",
          "type": "address"
        },
        {
          "internalType": "bool",
          "name": "approved",
          "type": "bool"
        }
      ],
      "name": "confiar_en_cliente",
      "outputs": [],
      "stateMutability": "nonpayable",
      "type": "function"
    },
    {
      "inputs": [],
      "name": "asignar_id",
      "outputs": [],
      "stateMutability": "payable",
      "type": "function",
      "payable": true
    },
    {
      "inputs": [
        {
          "internalType": "uint256",
          "name": "id_menu",
          "type": "uint256"
        }
      ],
      "name": "uri",
      "outputs": [
        {
          "internalType": "string",
          "name": "",
          "type": "string"
        }
      ],
      "stateMutability": "pure",
      "type": "function",
      "constant": true
    },
    {
      "inputs": [],
      "name": "obtener_empresa_catering",
      "outputs": [
        {
          "internalType": "address",
          "name": "",
          "type": "address"
        }
      ],
      "stateMutability": "view",
      "type": "function",
      "constant": true
    },
    {
      "inputs": [],
      "name": "listar_menus_en_venta",
      "outputs": [
        {
          "internalType": "uint256[]",
          "name": "",
          "type": "uint256[]"
        }
      ],
      "stateMutability": "view",
      "type": "function",
      "constant": true
    },
    {
      "inputs": [],
      "name": "listar_menus_de_un_cliente",
      "outputs": [
        {
          "internalType": "uint256[]",
          "name": "",
          "type": "uint256[]"
        }
      ],
      "stateMutability": "view",
      "type": "function",
      "constant": true
    },
    {
      "inputs": [],
      "name": "listar_menus_vendidos",
      "outputs": [
        {
          "internalType": "uint256[]",
          "name": "",
          "type": "uint256[]"
        }
      ],
      "stateMutability": "view",
      "type": "function",
      "constant": true
    }
  ],
  "bytecode": "0x6080604052737bfa68d89f6208c3fcb2df23772f5ea8db9a64e7600560006101000a81548173ffffffffffffffffffffffffffffffffffffffff021916908373ffffffffffffffffffffffffffffffffffffffff160217905550600160065566470de4df82000060075566d529ae9e8600006008556040518060800160405280605e81526020016200561f605e91396200009f81620002d260201b60201c565b50620000c0620000b4620002e760201b60201c565b620002ef60201b60201c565b33600460006101000a81548173ffffffffffffffffffffffffffffffffffffffff021916908373ffffffffffffffffffffffffffffffffffffffff1602179055506000601960075462000114919062000bdd565b9050803410156200015c576040517f08c379a0000000000000000000000000000000000000000000000000000000008152600401620001539062000caf565b60405180910390fd5b600560009054906101000a900473ffffffffffffffffffffffffffffffffffffffff1673ffffffffffffffffffffffffffffffffffffffff166108fc349081150290604051600060405180830381858888f19350505050158015620001c5573d6000803e3d6000fd5b506000600190505b6006811015620002ca576200021d600460009054906101000a900473ffffffffffffffffffffffffffffffffffffffff1682600560405180602001604052806000815250620003b560201b60201c565b6200022e816200059c60201b60201c565b6009600083815260200190815260200160002090816200024f919062000f41565b506000600c6000838152602001908152602001600020819055506200029d600460009054906101000a900473ffffffffffffffffffffffffffffffffffffffff1682620005dc60201b60201c565b600d6000838152602001908152602001600020819055508080620002c19062001028565b915050620001cd565b505062001856565b8060029081620002e3919062000f41565b5050565b600033905090565b6000600360009054906101000a900473ffffffffffffffffffffffffffffffffffffffff16905081600360006101000a81548173ffffffffffffffffffffffffffffffffffffffff021916908373ffffffffffffffffffffffffffffffffffffffff1602179055508173ffffffffffffffffffffffffffffffffffffffff168173ffffffffffffffffffffffffffffffffffffffff167f8be0079c531659141344cd1fd0a4f28419497f9722a3daafe3b4186f6b6457e060405160405180910390a35050565b600073ffffffffffffffffffffffffffffffffffffffff168473ffffffffffffffffffffffffffffffffffffffff160362000427576040517f08c379a00000000000000000000000000000000000000000000000000000000081526004016200041e90620010eb565b60405180910390fd5b600062000439620002e760201b60201c565b905060006200044e85620006a760201b60201c565b905060006200046385620006a760201b60201c565b90506200047c836000898585896200072860201b60201c565b8460008088815260200190815260200160002060008973ffffffffffffffffffffffffffffffffffffffff1673ffffffffffffffffffffffffffffffffffffffff1681526020019081526020016000206000828254620004dd91906200110d565b925050819055508673ffffffffffffffffffffffffffffffffffffffff16600073ffffffffffffffffffffffffffffffffffffffff168473ffffffffffffffffffffffffffffffffffffffff167fc3d58168c5ae7397731d063d5bbf3d657854427343f4c083240f7aacaa2d0f6289896040516200055d92919062001159565b60405180910390a46200057c836000898585896200073060201b60201c565b62000593836000898989896200073860201b60201c565b50505050505050565b6060620005b4826200093160201b620014f81760201c565b604051602001620005c69190620012e0565b6040516020818303038152906040529050919050565b60008073ffffffffffffffffffffffffffffffffffffffff168373ffffffffffffffffffffffffffffffffffffffff16036200064f576040517f08c379a0000000000000000000000000000000000000000000000000000000008152600401620006469062001389565b60405180910390fd5b60008083815260200190815260200160002060008473ffffffffffffffffffffffffffffffffffffffff1673ffffffffffffffffffffffffffffffffffffffff16815260200190815260200160002054905092915050565b60606000600167ffffffffffffffff811115620006c957620006c862000cdc565b5b604051908082528060200260200182016040528015620006f85781602001602082028036833780820191505090505b5090508281600081518110620007135762000712620013ab565b5b60200260200101818152505080915050919050565b505050505050565b505050505050565b620007648473ffffffffffffffffffffffffffffffffffffffff1662000a1560201b620015c61760201c565b1562000929578373ffffffffffffffffffffffffffffffffffffffff1663f23a6e6187878686866040518663ffffffff1660e01b8152600401620007ad9594939291906200148d565b6020604051808303816000875af1925050508015620007ec57506040513d601f19601f82011682018060405250810190620007e991906200155d565b60015b6200089d57620007fb6200159c565b806308c379a0036200085e575062000812620015f7565b806200081f575062000860565b806040517f08c379a0000000000000000000000000000000000000000000000000000000008152600401620008559190620016d3565b60405180910390fd5b505b6040517f08c379a000000000000000000000000000000000000000000000000000000000815260040162000894906200176d565b60405180910390fd5b63f23a6e6160e01b7bffffffffffffffffffffffffffffffffffffffffffffffffffffffff1916817bffffffffffffffffffffffffffffffffffffffffffffffffffffffff19161462000927576040517f08c379a00000000000000000000000000000000000000000000000000000000081526004016200091e9062001805565b60405180910390fd5b505b505050505050565b6060600060016200094d8462000a3860201b620015e91760201c565b01905060008167ffffffffffffffff8111156200096f576200096e62000cdc565b5b6040519080825280601f01601f191660200182016040528015620009a25781602001600182028036833780820191505090505b509050600082602001820190505b60011562000a0a578080600190039150507f3031323334353637383961626364656600000000000000000000000000000000600a86061a8153600a8581620009fd57620009fc62001827565b5b04945060008503620009b0575b819350505050919050565b6000808273ffffffffffffffffffffffffffffffffffffffff163b119050919050565b600080600090507a184f03e93ff9f4daa797ed6e38ed64bf6a1f010000000000000000831062000a9a577a184f03e93ff9f4daa797ed6e38ed64bf6a1f010000000000000000838162000a905762000a8f62001827565b5b0492506040810190505b6d04ee2d6d415b85acef8100000000831062000adb576d04ee2d6d415b85acef8100000000838162000ad15762000ad062001827565b5b0492506020810190505b662386f26fc10000831062000b0e57662386f26fc10000838162000b045762000b0362001827565b5b0492506010810190505b6305f5e100831062000b3b576305f5e100838162000b315762000b3062001827565b5b0492506008810190505b612710831062000b6457612710838162000b5a5762000b5962001827565b5b0492506004810190505b6064831062000b8b576064838162000b815762000b8062001827565b5b0492506002810190505b600a831062000b9b576001810190505b80915050919050565b6000819050919050565b7f4e487b7100000000000000000000000000000000000000000000000000000000600052601160045260246000fd5b600062000bea8262000ba4565b915062000bf78362000ba4565b925082820262000c078162000ba4565b9150828204841483151762000c215762000c2062000bae565b5b5092915050565b600082825260208201905092915050565b7f456c2070726f766565646f7220646520616c696d656e746f73206e656365736960008201527f7461206d61732064696e65726f00000000000000000000000000000000000000602082015250565b600062000c97602d8362000c28565b915062000ca48262000c39565b604082019050919050565b6000602082019050818103600083015262000cca8162000c88565b9050919050565b600081519050919050565b7f4e487b7100000000000000000000000000000000000000000000000000000000600052604160045260246000fd5b7f4e487b7100000000000000000000000000000000000000000000000000000000600052602260045260246000fd5b6000600282049050600182168062000d5357607f821691505b60208210810362000d695762000d6862000d0b565b5b50919050565b60008190508160005260206000209050919050565b60006020601f8301049050919050565b600082821b905092915050565b60006008830262000dd37fffffffffffffffffffffffffffffffffffffffffffffffffffffffffffffffff8262000d94565b62000ddf868362000d94565b95508019841693508086168417925050509392505050565b6000819050919050565b600062000e2262000e1c62000e168462000ba4565b62000df7565b62000ba4565b9050919050565b6000819050919050565b62000e3e8362000e01565b62000e5662000e4d8262000e29565b84845462000da1565b825550505050565b600090565b62000e6d62000e5e565b62000e7a81848462000e33565b505050565b5b8181101562000ea25762000e9660008262000e63565b60018101905062000e80565b5050565b601f82111562000ef15762000ebb8162000d6f565b62000ec68462000d84565b8101602085101562000ed6578190505b62000eee62000ee58562000d84565b83018262000e7f565b50505b505050565b600082821c905092915050565b600062000f166000198460080262000ef6565b1980831691505092915050565b600062000f31838362000f03565b9150826002028217905092915050565b62000f4c8262000cd1565b67ffffffffffffffff81111562000f685762000f6762000cdc565b5b62000f74825462000d3a565b62000f8182828562000ea6565b600060209050601f83116001811462000fb9576000841562000fa4578287015190505b62000fb0858262000f23565b86555062001020565b601f19841662000fc98662000d6f565b60005b8281101562000ff35784890151825560018201915060208501945060208101905062000fcc565b868310156200101357848901516200100f601f89168262000f03565b8355505b6001600288020188555050505b505050505050565b6000620010358262000ba4565b91507fffffffffffffffffffffffffffffffffffffffffffffffffffffffffffffffff82036200106a576200106962000bae565b5b600182019050919050565b7f455243313135353a206d696e7420746f20746865207a65726f2061646472657360008201527f7300000000000000000000000000000000000000000000000000000000000000602082015250565b6000620010d360218362000c28565b9150620010e08262001075565b604082019050919050565b600060208201905081810360008301526200110681620010c4565b9050919050565b60006200111a8262000ba4565b9150620011278362000ba4565b925082820190508082111562001142576200114162000bae565b5b92915050565b620011538162000ba4565b82525050565b600060408201905062001170600083018562001148565b6200117f602083018462001148565b9392505050565b600081905092915050565b7f68747470733a2f2f697066732e696f2f697066732f626166796265696237656160008201527f37696266736269346b6932783562796e763576707275786e37353769636d626d60208201527f34716c736b6764677665357136686c6d2f6e756d65726f5f0000000000000000604082015250565b60006200121560588362001186565b9150620012228262001191565b605882019050919050565b60005b838110156200124d57808201518184015260208101905062001230565b60008484015250505050565b6000620012668262000cd1565b62001272818562001186565b9350620012848185602086016200122d565b80840191505092915050565b7f2e6a736f6e000000000000000000000000000000000000000000000000000000600082015250565b6000620012c860058362001186565b9150620012d58262001290565b600582019050919050565b6000620012ed8262001206565b9150620012fb828462001259565b91506200130882620012b9565b915081905092915050565b7f455243313135353a2061646472657373207a65726f206973206e6f742061207660008201527f616c6964206f776e657200000000000000000000000000000000000000000000602082015250565b600062001371602a8362000c28565b91506200137e8262001313565b604082019050919050565b60006020820190508181036000830152620013a48162001362565b9050919050565b7f4e487b7100000000000000000000000000000000000000000000000000000000600052603260045260246000fd5b600073ffffffffffffffffffffffffffffffffffffffff82169050919050565b60006200140782620013da565b9050919050565b6200141981620013fa565b82525050565b600081519050919050565b600082825260208201905092915050565b6000601f19601f8301169050919050565b600062001459826200141f565b6200146581856200142a565b9350620014778185602086016200122d565b62001482816200143b565b840191505092915050565b600060a082019050620014a460008301886200140e565b620014b360208301876200140e565b620014c2604083018662001148565b620014d1606083018562001148565b8181036080830152620014e581846200144c565b90509695505050505050565b6000604051905090565b600080fd5b60007fffffffff0000000000000000000000000000000000000000000000000000000082169050919050565b620015378162001500565b81146200154357600080fd5b50565b60008151905062001557816200152c565b92915050565b600060208284031215620015765762001575620014fb565b5b6000620015868482850162001546565b91505092915050565b60008160e01c9050919050565b600060033d1115620015be5760046000803e620015bb6000516200158f565b90505b90565b620015cc826200143b565b810181811067ffffffffffffffff82111715620015ee57620015ed62000cdc565b5b80604052505050565b600060443d106200168f576200160c620014f1565b60043d036004823e80513d602482011167ffffffffffffffff82111715620016365750506200168f565b808201805167ffffffffffffffff8111156200165657505050506200168f565b80602083010160043d038501811115620016755750505050506200168f565b6200168682602001850186620015c1565b82955050505050505b90565b60006200169f8262000cd1565b620016ab818562000c28565b9350620016bd8185602086016200122d565b620016c8816200143b565b840191505092915050565b60006020820190508181036000830152620016ef818462001692565b905092915050565b7f455243313135353a207472616e7366657220746f206e6f6e2d4552433131353560008201527f526563656976657220696d706c656d656e746572000000000000000000000000602082015250565b60006200175560348362000c28565b91506200176282620016f7565b604082019050919050565b60006020820190508181036000830152620017888162001746565b9050919050565b7f455243313135353a204552433131353552656365697665722072656a6563746560008201527f6420746f6b656e73000000000000000000000000000000000000000000000000602082015250565b6000620017ed60288362000c28565b9150620017fa826200178f565b604082019050919050565b600060208201905081810360008301526200182081620017de565b9050919050565b7f4e487b7100000000000000000000000000000000000000000000000000000000600052601260045260246000fd5b613db980620018666000396000f3fe6080604052600436106101d75760003560e01c80638da5cb5b11610102578063bf00ef4011610095578063f242432a11610064578063f242432a146106cf578063f2fde38b146106f8578063f847f86614610721578063ff4eaddc1461072b576101d7565b8063bf00ef401461060e578063c18350d514610639578063d0c1240d14610676578063e985e9c514610692576101d7565b8063a25398d2116100d1578063a25398d214610550578063a57ba0bb1461057b578063b06e8268146105b8578063b611b4eb146105e3576101d7565b80638da5cb5b1461049457806392512afe146104bf5780639b8139f9146104ea578063a22cb46514610527576101d7565b80634e1273f41161017a57806369bc2b0e1161014957806369bc2b0e1461040b578063715018a6146104365780637cff72511461044d578063867a86dc14610478576101d7565b80634e1273f41461033d5780636391d5b01461037a5780636493395f146103a557806365a49547146103ce576101d7565b806316b1ce88116101b657806316b1ce8814610293578063250bd53f146102be5780632eb2c2d6146102e95780634d16e4ed14610312576101d7565b8062fdd58e146101dc57806301ffc9a7146102195780630e89341c14610256575b600080fd5b3480156101e857600080fd5b5061020360048036038101906101fe91906126aa565b610756565b60405161021091906126f9565b60405180910390f35b34801561022557600080fd5b50610240600480360381019061023b919061276c565b61081e565b60405161024d91906127b4565b60405180910390f35b34801561026257600080fd5b5061027d600480360381019061027891906127cf565b610900565b60405161028a919061288c565b60405180910390f35b34801561029f57600080fd5b506102a8610931565b6040516102b591906128bd565b60405180910390f35b3480156102ca57600080fd5b506102d361095b565b6040516102e091906126f9565b60405180910390f35b3480156102f557600080fd5b50610310600480360381019061030b9190612ad5565b610960565b005b34801561031e57600080fd5b50610327610a01565b6040516103349190612c62565b60405180910390f35b34801561034957600080fd5b50610364600480360381019061035f9190612d47565b610ab7565b6040516103719190612c62565b60405180910390f35b34801561038657600080fd5b5061038f610bd0565b60405161039c91906126f9565b60405180910390f35b3480156103b157600080fd5b506103cc60048036038101906103c79190612deb565b610bd5565b005b3480156103da57600080fd5b506103f560048036038101906103f09190612e2b565b610c06565b60405161040291906126f9565b60405180910390f35b34801561041757600080fd5b50610420610c1e565b60405161042d91906126f9565b60405180910390f35b34801561044257600080fd5b5061044b610c24565b005b34801561045957600080fd5b50610462610c38565b60405161046f91906126f9565b60405180910390f35b610492600480360381019061048d9190612e58565b610c3d565b005b3480156104a057600080fd5b506104a9610d45565b6040516104b691906128bd565b60405180910390f35b3480156104cb57600080fd5b506104d4610d6f565b6040516104e191906126f9565b60405180910390f35b3480156104f657600080fd5b50610511600480360381019061050c91906127cf565b610d74565b60405161051e91906126f9565b60405180910390f35b34801561053357600080fd5b5061054e60048036038101906105499190612deb565b610d8c565b005b34801561055c57600080fd5b50610565610da2565b6040516105729190612c62565b60405180910390f35b34801561058757600080fd5b506105a2600480360381019061059d91906127cf565b610e70565b6040516105af919061288c565b60405180910390f35b3480156105c457600080fd5b506105cd610f10565b6040516105da9190612eb9565b60405180910390f35b3480156105ef57600080fd5b506105f8610f36565b60405161060591906126f9565b60405180910390f35b34801561061a57600080fd5b50610623610f3b565b60405161063091906126f9565b60405180910390f35b34801561064557600080fd5b50610660600480360381019061065b91906127cf565b610f41565b60405161066d91906126f9565b60405180910390f35b610690600480360381019061068b9190612e58565b610f59565b005b34801561069e57600080fd5b506106b960048036038101906106b49190612ed4565b61116c565b6040516106c691906127b4565b60405180910390f35b3480156106db57600080fd5b506106f660048036038101906106f19190612f14565b611200565b005b34801561070457600080fd5b5061071f600480360381019061071a9190612e2b565b6112a1565b005b610729611324565b005b34801561073757600080fd5b5061074061144c565b60405161074d9190612c62565b60405180910390f35b60008073ffffffffffffffffffffffffffffffffffffffff168373ffffffffffffffffffffffffffffffffffffffff16036107c6576040517f08c379a00000000000000000000000000000000000000000000000000000000081526004016107bd9061301d565b60405180910390fd5b60008083815260200190815260200160002060008473ffffffffffffffffffffffffffffffffffffffff1673ffffffffffffffffffffffffffffffffffffffff16815260200190815260200160002054905092915050565b60007fd9b67a26000000000000000000000000000000000000000000000000000000007bffffffffffffffffffffffffffffffffffffffffffffffffffffffff1916827bffffffffffffffffffffffffffffffffffffffffffffffffffffffff191614806108e957507f0e89341c000000000000000000000000000000000000000000000000000000007bffffffffffffffffffffffffffffffffffffffffffffffffffffffff1916827bffffffffffffffffffffffffffffffffffffffffffffffffffffffff1916145b806108f957506108f88261173c565b5b9050919050565b606061090b826114f8565b60405160200161091b919061315d565b6040516020818303038152906040529050919050565b6000600460009054906101000a900473ffffffffffffffffffffffffffffffffffffffff16905090565b600281565b6109686117a6565b73ffffffffffffffffffffffffffffffffffffffff168573ffffffffffffffffffffffffffffffffffffffff1614806109ae57506109ad856109a86117a6565b61116c565b5b6109ed576040517f08c379a00000000000000000000000000000000000000000000000000000000081526004016109e4906131fc565b60405180910390fd5b6109fa85858585856117ae565b5050505050565b60606000600567ffffffffffffffff811115610a2057610a1f6128dd565b5b604051908082528060200260200182016040528015610a4e5781602001602082028036833780820191505090505b50905060005b6005811015610aaf57600c6000600183610a6e919061324b565b815260200190815260200160002054828281518110610a9057610a8f61327f565b5b6020026020010181815250508080610aa7906132ae565b915050610a54565b508091505090565b60608151835114610afd576040517f08c379a0000000000000000000000000000000000000000000000000000000008152600401610af490613368565b60405180910390fd5b6000835167ffffffffffffffff811115610b1a57610b196128dd565b5b604051908082528060200260200182016040528015610b485781602001602082028036833780820191505090505b50905060005b8451811015610bc557610b95858281518110610b6d57610b6c61327f565b5b6020026020010151858381518110610b8857610b8761327f565b5b6020026020010151610756565b828281518110610ba857610ba761327f565b5b60200260200101818152505080610bbe906132ae565b9050610b4e565b508091505092915050565b600581565b610c02600460009054906101000a900473ffffffffffffffffffffffffffffffffffffffff168383611acf565b5050565b600a6020528060005260406000206000915090505481565b60075481565b610c2c611c3b565b610c366000611cb9565b565b600181565b610c45611c3b565b600081600754610c559190613388565b905080341015610c9a576040517f08c379a0000000000000000000000000000000000000000000000000000000008152600401610c919061343c565b60405180910390fd5b600560009054906101000a900473ffffffffffffffffffffffffffffffffffffffff1673ffffffffffffffffffffffffffffffffffffffff166108fc349081150290604051600060405180830381858888f19350505050158015610d02573d6000803e3d6000fd5b50610d40600460009054906101000a900473ffffffffffffffffffffffffffffffffffffffff16848460405180602001604052806000815250611d7f565b505050565b6000600360009054906101000a900473ffffffffffffffffffffffffffffffffffffffff16905090565b600481565b600c6020528060005260406000206000915090505481565b610d9e610d976117a6565b8383611acf565b5050565b60606000600567ffffffffffffffff811115610dc157610dc06128dd565b5b604051908082528060200260200182016040528015610def5781602001602082028036833780820191505090505b50905060005b6005811015610e6857610e36600460009054906101000a900473ffffffffffffffffffffffffffffffffffffffff16600183610e31919061324b565b610756565b828281518110610e4957610e4861327f565b5b6020026020010181815250508080610e60906132ae565b915050610df5565b508091505090565b60096020528060005260406000206000915090508054610e8f9061348b565b80601f0160208091040260200160405190810160405280929190818152602001828054610ebb9061348b565b8015610f085780601f10610edd57610100808354040283529160200191610f08565b820191906000526020600020905b815481529060010190602001808311610eeb57829003601f168201915b505050505081565b600560009054906101000a900473ffffffffffffffffffffffffffffffffffffffff1681565b600381565b60085481565b600d6020528060005260406000206000915090505481565b80610f86600460009054906101000a900473ffffffffffffffffffffffffffffffffffffffff1684610756565b1015610fc7576040517f08c379a0000000000000000000000000000000000000000000000000000000008152600401610fbe9061352e565b60405180910390fd5b600081600854610fd79190613388565b90508034101561101c576040517f08c379a0000000000000000000000000000000000000000000000000000000008152600401611013906135c0565b60405180910390fd5b611027336001610bd5565b611065600460009054906101000a900473ffffffffffffffffffffffffffffffffffffffff1633858560405180602001604052806000815250611200565b600460009054906101000a900473ffffffffffffffffffffffffffffffffffffffff1673ffffffffffffffffffffffffffffffffffffffff166108fc349081150290604051600060405180830381858888f193505050501580156110cd573d6000803e3d6000fd5b506110d6611324565b81600b60003373ffffffffffffffffffffffffffffffffffffffff1673ffffffffffffffffffffffffffffffffffffffff16815260200190815260200160002060008581526020019081526020016000206000828254611136919061324b565b9250508190555081600c60008581526020019081526020016000206000828254611160919061324b565b92505081905550505050565b6000600160008473ffffffffffffffffffffffffffffffffffffffff1673ffffffffffffffffffffffffffffffffffffffff16815260200190815260200160002060008373ffffffffffffffffffffffffffffffffffffffff1673ffffffffffffffffffffffffffffffffffffffff16815260200190815260200160002060009054906101000a900460ff16905092915050565b6112086117a6565b73ffffffffffffffffffffffffffffffffffffffff168573ffffffffffffffffffffffffffffffffffffffff16148061124e575061124d856112486117a6565b61116c565b5b61128d576040517f08c379a0000000000000000000000000000000000000000000000000000000008152600401611284906131fc565b60405180910390fd5b61129a8585858585611f2f565b5050505050565b6112a9611c3b565b600073ffffffffffffffffffffffffffffffffffffffff168173ffffffffffffffffffffffffffffffffffffffff1603611318576040517f08c379a000000000000000000000000000000000000000000000000000000000815260040161130f90613652565b60405180910390fd5b61132181611cb9565b50565b6000600a60003373ffffffffffffffffffffffffffffffffffffffff1673ffffffffffffffffffffffffffffffffffffffff1681526020019081526020016000205490506000810361144957600654600a60003373ffffffffffffffffffffffffffffffffffffffff1673ffffffffffffffffffffffffffffffffffffffff16815260200190815260200160002081905550600660008154809291906113c9906132ae565b91905055506000600190505b6006811015611447576000600b60003373ffffffffffffffffffffffffffffffffffffffff1673ffffffffffffffffffffffffffffffffffffffff168152602001908152602001600020600083815260200190815260200160002081905550808061143f906132ae565b9150506113d5565b505b50565b60606000600567ffffffffffffffff81111561146b5761146a6128dd565b5b6040519080825280602002602001820160405280156114995781602001602082028036833780820191505090505b50905060005b60058110156114f0576114be336001836114b9919061324b565b610756565b8282815181106114d1576114d061327f565b5b60200260200101818152505080806114e8906132ae565b91505061149f565b508091505090565b606060006001611507846115e9565b01905060008167ffffffffffffffff811115611526576115256128dd565b5b6040519080825280601f01601f1916602001820160405280156115585781602001600182028036833780820191505090505b509050600082602001820190505b6001156115bb578080600190039150507f3031323334353637383961626364656600000000000000000000000000000000600a86061a8153600a85816115af576115ae613672565b5b04945060008503611566575b819350505050919050565b6000808273ffffffffffffffffffffffffffffffffffffffff163b119050919050565b600080600090507a184f03e93ff9f4daa797ed6e38ed64bf6a1f0100000000000000008310611647577a184f03e93ff9f4daa797ed6e38ed64bf6a1f010000000000000000838161163d5761163c613672565b5b0492506040810190505b6d04ee2d6d415b85acef81000000008310611684576d04ee2d6d415b85acef8100000000838161167a57611679613672565b5b0492506020810190505b662386f26fc1000083106116b357662386f26fc1000083816116a9576116a8613672565b5b0492506010810190505b6305f5e10083106116dc576305f5e10083816116d2576116d1613672565b5b0492506008810190505b61271083106117015761271083816116f7576116f6613672565b5b0492506004810190505b60648310611724576064838161171a57611719613672565b5b0492506002810190505b600a8310611733576001810190505b80915050919050565b60007f01ffc9a7000000000000000000000000000000000000000000000000000000007bffffffffffffffffffffffffffffffffffffffffffffffffffffffff1916827bffffffffffffffffffffffffffffffffffffffffffffffffffffffff1916149050919050565b600033905090565b81518351146117f2576040517f08c379a00000000000000000000000000000000000000000000000000000000081526004016117e990613713565b60405180910390fd5b600073ffffffffffffffffffffffffffffffffffffffff168473ffffffffffffffffffffffffffffffffffffffff1603611861576040517f08c379a0000000000000000000000000000000000000000000000000000000008152600401611858906137a5565b60405180910390fd5b600061186b6117a6565b905061187b8187878787876121ca565b60005b8451811015611a2c57600085828151811061189c5761189b61327f565b5b6020026020010151905060008583815181106118bb576118ba61327f565b5b60200260200101519050600080600084815260200190815260200160002060008b73ffffffffffffffffffffffffffffffffffffffff1673ffffffffffffffffffffffffffffffffffffffff1681526020019081526020016000205490508181101561195c576040517f08c379a000000000000000000000000000000000000000000000000000000000815260040161195390613837565b60405180910390fd5b81810360008085815260200190815260200160002060008c73ffffffffffffffffffffffffffffffffffffffff1673ffffffffffffffffffffffffffffffffffffffff168152602001908152602001600020819055508160008085815260200190815260200160002060008b73ffffffffffffffffffffffffffffffffffffffff1673ffffffffffffffffffffffffffffffffffffffff1681526020019081526020016000206000828254611a11919061324b565b9250508190555050505080611a25906132ae565b905061187e565b508473ffffffffffffffffffffffffffffffffffffffff168673ffffffffffffffffffffffffffffffffffffffff168273ffffffffffffffffffffffffffffffffffffffff167f4a39dc06d4c0dbc64b70af90fd698a233a518aa5d07e595d983b8c0526c8f7fb8787604051611aa3929190613857565b60405180910390a4611ab98187878787876121d2565b611ac78187878787876121da565b505050505050565b8173ffffffffffffffffffffffffffffffffffffffff168373ffffffffffffffffffffffffffffffffffffffff1603611b3d576040517f08c379a0000000000000000000000000000000000000000000000000000000008152600401611b3490613900565b60405180910390fd5b80600160008573ffffffffffffffffffffffffffffffffffffffff1673ffffffffffffffffffffffffffffffffffffffff16815260200190815260200160002060008473ffffffffffffffffffffffffffffffffffffffff1673ffffffffffffffffffffffffffffffffffffffff16815260200190815260200160002060006101000a81548160ff0219169083151502179055508173ffffffffffffffffffffffffffffffffffffffff168373ffffffffffffffffffffffffffffffffffffffff167f17307eab39ab6107e8899845ad3d59bd9653f200f220920489ca2b5937696c3183604051611c2e91906127b4565b60405180910390a3505050565b611c436117a6565b73ffffffffffffffffffffffffffffffffffffffff16611c61610d45565b73ffffffffffffffffffffffffffffffffffffffff1614611cb7576040517f08c379a0000000000000000000000000000000000000000000000000000000008152600401611cae9061396c565b60405180910390fd5b565b6000600360009054906101000a900473ffffffffffffffffffffffffffffffffffffffff16905081600360006101000a81548173ffffffffffffffffffffffffffffffffffffffff021916908373ffffffffffffffffffffffffffffffffffffffff1602179055508173ffffffffffffffffffffffffffffffffffffffff168173ffffffffffffffffffffffffffffffffffffffff167f8be0079c531659141344cd1fd0a4f28419497f9722a3daafe3b4186f6b6457e060405160405180910390a35050565b600073ffffffffffffffffffffffffffffffffffffffff168473ffffffffffffffffffffffffffffffffffffffff1603611dee576040517f08c379a0000000000000000000000000000000000000000000000000000000008152600401611de5906139fe565b60405180910390fd5b6000611df86117a6565b90506000611e05856123b1565b90506000611e12856123b1565b9050611e23836000898585896121ca565b8460008088815260200190815260200160002060008973ffffffffffffffffffffffffffffffffffffffff1673ffffffffffffffffffffffffffffffffffffffff1681526020019081526020016000206000828254611e82919061324b565b925050819055508673ffffffffffffffffffffffffffffffffffffffff16600073ffffffffffffffffffffffffffffffffffffffff168473ffffffffffffffffffffffffffffffffffffffff167fc3d58168c5ae7397731d063d5bbf3d657854427343f4c083240f7aacaa2d0f628989604051611f00929190613a1e565b60405180910390a4611f17836000898585896121d2565b611f268360008989898961242b565b50505050505050565b600073ffffffffffffffffffffffffffffffffffffffff168473ffffffffffffffffffffffffffffffffffffffff1603611f9e576040517f08c379a0000000000000000000000000000000000000000000000000000000008152600401611f95906137a5565b60405180910390fd5b6000611fa86117a6565b90506000611fb5856123b1565b90506000611fc2856123b1565b9050611fd28389898585896121ca565b600080600088815260200190815260200160002060008a73ffffffffffffffffffffffffffffffffffffffff1673ffffffffffffffffffffffffffffffffffffffff16815260200190815260200160002054905085811015612069576040517f08c379a000000000000000000000000000000000000000000000000000000000815260040161206090613837565b60405180910390fd5b85810360008089815260200190815260200160002060008b73ffffffffffffffffffffffffffffffffffffffff1673ffffffffffffffffffffffffffffffffffffffff168152602001908152602001600020819055508560008089815260200190815260200160002060008a73ffffffffffffffffffffffffffffffffffffffff1673ffffffffffffffffffffffffffffffffffffffff168152602001908152602001600020600082825461211e919061324b565b925050819055508773ffffffffffffffffffffffffffffffffffffffff168973ffffffffffffffffffffffffffffffffffffffff168573ffffffffffffffffffffffffffffffffffffffff167fc3d58168c5ae7397731d063d5bbf3d657854427343f4c083240f7aacaa2d0f628a8a60405161219b929190613a1e565b60405180910390a46121b1848a8a86868a6121d2565b6121bf848a8a8a8a8a61242b565b505050505050505050565b505050505050565b505050505050565b6121f98473ffffffffffffffffffffffffffffffffffffffff166115c6565b156123a9578373ffffffffffffffffffffffffffffffffffffffff1663bc197c8187878686866040518663ffffffff1660e01b815260040161223f959493929190613a9c565b6020604051808303816000875af192505050801561227b57506040513d601f19601f820116820180604052508101906122789190613b19565b60015b61232057612287613b53565b806308c379a0036122e3575061229b613b75565b806122a657506122e5565b806040517f08c379a00000000000000000000000000000000000000000000000000000000081526004016122da919061288c565b60405180910390fd5b505b6040517f08c379a000000000000000000000000000000000000000000000000000000000815260040161231790613c77565b60405180910390fd5b63bc197c8160e01b7bffffffffffffffffffffffffffffffffffffffffffffffffffffffff1916817bffffffffffffffffffffffffffffffffffffffffffffffffffffffff1916146123a7576040517f08c379a000000000000000000000000000000000000000000000000000000000815260040161239e90613d09565b60405180910390fd5b505b505050505050565b60606000600167ffffffffffffffff8111156123d0576123cf6128dd565b5b6040519080825280602002602001820160405280156123fe5781602001602082028036833780820191505090505b50905082816000815181106124165761241561327f565b5b60200260200101818152505080915050919050565b61244a8473ffffffffffffffffffffffffffffffffffffffff166115c6565b156125fa578373ffffffffffffffffffffffffffffffffffffffff1663f23a6e6187878686866040518663ffffffff1660e01b8152600401612490959493929190613d29565b6020604051808303816000875af19250505080156124cc57506040513d601f19601f820116820180604052508101906124c99190613b19565b60015b612571576124d8613b53565b806308c379a00361253457506124ec613b75565b806124f75750612536565b806040517f08c379a000000000000000000000000000000000000000000000000000000000815260040161252b919061288c565b60405180910390fd5b505b6040517f08c379a000000000000000000000000000000000000000000000000000000000815260040161256890613c77565b60405180910390fd5b63f23a6e6160e01b7bffffffffffffffffffffffffffffffffffffffffffffffffffffffff1916817bffffffffffffffffffffffffffffffffffffffffffffffffffffffff1916146125f8576040517f08c379a00000000000000000000000000000000000000000000000000000000081526004016125ef90613d09565b60405180910390fd5b505b505050505050565b6000604051905090565b600080fd5b600080fd5b600073ffffffffffffffffffffffffffffffffffffffff82169050919050565b600061264182612616565b9050919050565b61265181612636565b811461265c57600080fd5b50565b60008135905061266e81612648565b92915050565b6000819050919050565b61268781612674565b811461269257600080fd5b50565b6000813590506126a48161267e565b92915050565b600080604083850312156126c1576126c061260c565b5b60006126cf8582860161265f565b92505060206126e085828601612695565b9150509250929050565b6126f381612674565b82525050565b600060208201905061270e60008301846126ea565b92915050565b60007fffffffff0000000000000000000000000000000000000000000000000000000082169050919050565b61274981612714565b811461275457600080fd5b50565b60008135905061276681612740565b92915050565b6000602082840312156127825761278161260c565b5b600061279084828501612757565b91505092915050565b60008115159050919050565b6127ae81612799565b82525050565b60006020820190506127c960008301846127a5565b92915050565b6000602082840312156127e5576127e461260c565b5b60006127f384828501612695565b91505092915050565b600081519050919050565b600082825260208201905092915050565b60005b8381101561283657808201518184015260208101905061281b565b60008484015250505050565b6000601f19601f8301169050919050565b600061285e826127fc565b6128688185612807565b9350612878818560208601612818565b61288181612842565b840191505092915050565b600060208201905081810360008301526128a68184612853565b905092915050565b6128b781612636565b82525050565b60006020820190506128d260008301846128ae565b92915050565b600080fd5b7f4e487b7100000000000000000000000000000000000000000000000000000000600052604160045260246000fd5b61291582612842565b810181811067ffffffffffffffff82111715612934576129336128dd565b5b80604052505050565b6000612947612602565b9050612953828261290c565b919050565b600067ffffffffffffffff821115612973576129726128dd565b5b602082029050602081019050919050565b600080fd5b600061299c61299784612958565b61293d565b905080838252602082019050602084028301858111156129bf576129be612984565b5b835b818110156129e857806129d48882612695565b8452602084019350506020810190506129c1565b5050509392505050565b600082601f830112612a0757612a066128d8565b5b8135612a17848260208601612989565b91505092915050565b600080fd5b600067ffffffffffffffff821115612a4057612a3f6128dd565b5b612a4982612842565b9050602081019050919050565b82818337600083830152505050565b6000612a78612a7384612a25565b61293d565b905082815260208101848484011115612a9457612a93612a20565b5b612a9f848285612a56565b509392505050565b600082601f830112612abc57612abb6128d8565b5b8135612acc848260208601612a65565b91505092915050565b600080600080600060a08688031215612af157612af061260c565b5b6000612aff8882890161265f565b9550506020612b108882890161265f565b945050604086013567ffffffffffffffff811115612b3157612b30612611565b5b612b3d888289016129f2565b935050606086013567ffffffffffffffff811115612b5e57612b5d612611565b5b612b6a888289016129f2565b925050608086013567ffffffffffffffff811115612b8b57612b8a612611565b5b612b9788828901612aa7565b9150509295509295909350565b600081519050919050565b600082825260208201905092915050565b6000819050602082019050919050565b612bd981612674565b82525050565b6000612beb8383612bd0565b60208301905092915050565b6000602082019050919050565b6000612c0f82612ba4565b612c198185612baf565b9350612c2483612bc0565b8060005b83811015612c55578151612c3c8882612bdf565b9750612c4783612bf7565b925050600181019050612c28565b5085935050505092915050565b60006020820190508181036000830152612c7c8184612c04565b905092915050565b600067ffffffffffffffff821115612c9f57612c9e6128dd565b5b602082029050602081019050919050565b6000612cc3612cbe84612c84565b61293d565b90508083825260208201905060208402830185811115612ce657612ce5612984565b5b835b81811015612d0f5780612cfb888261265f565b845260208401935050602081019050612ce8565b5050509392505050565b600082601f830112612d2e57612d2d6128d8565b5b8135612d3e848260208601612cb0565b91505092915050565b60008060408385031215612d5e57612d5d61260c565b5b600083013567ffffffffffffffff811115612d7c57612d7b612611565b5b612d8885828601612d19565b925050602083013567ffffffffffffffff811115612da957612da8612611565b5b612db5858286016129f2565b9150509250929050565b612dc881612799565b8114612dd357600080fd5b50565b600081359050612de581612dbf565b92915050565b60008060408385031215612e0257612e0161260c565b5b6000612e108582860161265f565b9250506020612e2185828601612dd6565b9150509250929050565b600060208284031215612e4157612e4061260c565b5b6000612e4f8482850161265f565b91505092915050565b60008060408385031215612e6f57612e6e61260c565b5b6000612e7d85828601612695565b9250506020612e8e85828601612695565b9150509250929050565b6000612ea382612616565b9050919050565b612eb381612e98565b82525050565b6000602082019050612ece6000830184612eaa565b92915050565b60008060408385031215612eeb57612eea61260c565b5b6000612ef98582860161265f565b9250506020612f0a8582860161265f565b9150509250929050565b600080600080600060a08688031215612f3057612f2f61260c565b5b6000612f3e8882890161265f565b9550506020612f4f8882890161265f565b9450506040612f6088828901612695565b9350506060612f7188828901612695565b925050608086013567ffffffffffffffff811115612f9257612f91612611565b5b612f9e88828901612aa7565b9150509295509295909350565b7f455243313135353a2061646472657373207a65726f206973206e6f742061207660008201527f616c6964206f776e657200000000000000000000000000000000000000000000602082015250565b6000613007602a83612807565b915061301282612fab565b604082019050919050565b6000602082019050818103600083015261303681612ffa565b9050919050565b600081905092915050565b7f68747470733a2f2f697066732e696f2f697066732f626166796265696237656160008201527f37696266736269346b6932783562796e763576707275786e37353769636d626d60208201527f34716c736b6764677665357136686c6d2f6e756d65726f5f0000000000000000604082015250565b60006130ca60588361303d565b91506130d582613048565b605882019050919050565b60006130eb826127fc565b6130f5818561303d565b9350613105818560208601612818565b80840191505092915050565b7f2e6a736f6e000000000000000000000000000000000000000000000000000000600082015250565b600061314760058361303d565b915061315282613111565b600582019050919050565b6000613168826130bd565b915061317482846130e0565b915061317f8261313a565b915081905092915050565b7f455243313135353a2063616c6c6572206973206e6f7420746f6b656e206f776e60008201527f6572206f7220617070726f766564000000000000000000000000000000000000602082015250565b60006131e6602e83612807565b91506131f18261318a565b604082019050919050565b60006020820190508181036000830152613215816131d9565b9050919050565b7f4e487b7100000000000000000000000000000000000000000000000000000000600052601160045260246000fd5b600061325682612674565b915061326183612674565b92508282019050808211156132795761327861321c565b5b92915050565b7f4e487b7100000000000000000000000000000000000000000000000000000000600052603260045260246000fd5b60006132b982612674565b91507fffffffffffffffffffffffffffffffffffffffffffffffffffffffffffffffff82036132eb576132ea61321c565b5b600182019050919050565b7f455243313135353a206163636f756e747320616e6420696473206c656e67746860008201527f206d69736d617463680000000000000000000000000000000000000000000000602082015250565b6000613352602983612807565b915061335d826132f6565b604082019050919050565b6000602082019050818103600083015261338181613345565b9050919050565b600061339382612674565b915061339e83612674565b92508282026133ac81612674565b915082820484148315176133c3576133c261321c565b5b5092915050565b7f456c2070726f766565646f7220646520616c696d656e746f73206e656365736960008201527f7461206d61732064696e65726f00000000000000000000000000000000000000602082015250565b6000613426602d83612807565b9150613431826133ca565b604082019050919050565b6000602082019050818103600083015261345581613419565b9050919050565b7f4e487b7100000000000000000000000000000000000000000000000000000000600052602260045260246000fd5b600060028204905060018216806134a357607f821691505b6020821081036134b6576134b561345c565b5b50919050565b7f43616e7469646164206e6f20646973706f6e69626c6520646520657365206d6560008201527f6e75000000000000000000000000000000000000000000000000000000000000602082015250565b6000613518602283612807565b9150613523826134bc565b604082019050919050565b600060208201905081810360008301526135478161350b565b9050919050565b7f456c2076616c6f72206d696e696d6f207061726120636f6d7072617220746f6b60008201527f656e73206573206d61796f720000000000000000000000000000000000000000602082015250565b60006135aa602c83612807565b91506135b58261354e565b604082019050919050565b600060208201905081810360008301526135d98161359d565b9050919050565b7f4f776e61626c653a206e6577206f776e657220697320746865207a65726f206160008201527f6464726573730000000000000000000000000000000000000000000000000000602082015250565b600061363c602683612807565b9150613647826135e0565b604082019050919050565b6000602082019050818103600083015261366b8161362f565b9050919050565b7f4e487b7100000000000000000000000000000000000000000000000000000000600052601260045260246000fd5b7f455243313135353a2069647320616e6420616d6f756e7473206c656e6774682060008201527f6d69736d61746368000000000000000000000000000000000000000000000000602082015250565b60006136fd602883612807565b9150613708826136a1565b604082019050919050565b6000602082019050818103600083015261372c816136f0565b9050919050565b7f455243313135353a207472616e7366657220746f20746865207a65726f20616460008201527f6472657373000000000000000000000000000000000000000000000000000000602082015250565b600061378f602583612807565b915061379a82613733565b604082019050919050565b600060208201905081810360008301526137be81613782565b9050919050565b7f455243313135353a20696e73756666696369656e742062616c616e636520666f60008201527f72207472616e7366657200000000000000000000000000000000000000000000602082015250565b6000613821602a83612807565b915061382c826137c5565b604082019050919050565b6000602082019050818103600083015261385081613814565b9050919050565b600060408201905081810360008301526138718185612c04565b905081810360208301526138858184612c04565b90509392505050565b7f455243313135353a2073657474696e6720617070726f76616c2073746174757360008201527f20666f722073656c660000000000000000000000000000000000000000000000602082015250565b60006138ea602983612807565b91506138f58261388e565b604082019050919050565b60006020820190508181036000830152613919816138dd565b9050919050565b7f4f776e61626c653a2063616c6c6572206973206e6f7420746865206f776e6572600082015250565b6000613956602083612807565b915061396182613920565b602082019050919050565b6000602082019050818103600083015261398581613949565b9050919050565b7f455243313135353a206d696e7420746f20746865207a65726f2061646472657360008201527f7300000000000000000000000000000000000000000000000000000000000000602082015250565b60006139e8602183612807565b91506139f38261398c565b604082019050919050565b60006020820190508181036000830152613a17816139db565b9050919050565b6000604082019050613a3360008301856126ea565b613a4060208301846126ea565b9392505050565b600081519050919050565b600082825260208201905092915050565b6000613a6e82613a47565b613a788185613a52565b9350613a88818560208601612818565b613a9181612842565b840191505092915050565b600060a082019050613ab160008301886128ae565b613abe60208301876128ae565b8181036040830152613ad08186612c04565b90508181036060830152613ae48185612c04565b90508181036080830152613af88184613a63565b90509695505050505050565b600081519050613b1381612740565b92915050565b600060208284031215613b2f57613b2e61260c565b5b6000613b3d84828501613b04565b91505092915050565b60008160e01c9050919050565b600060033d1115613b725760046000803e613b6f600051613b46565b90505b90565b600060443d10613c0257613b87612602565b60043d036004823e80513d602482011167ffffffffffffffff82111715613baf575050613c02565b808201805167ffffffffffffffff811115613bcd5750505050613c02565b80602083010160043d038501811115613bea575050505050613c02565b613bf98260200185018661290c565b82955050505050505b90565b7f455243313135353a207472616e7366657220746f206e6f6e2d4552433131353560008201527f526563656976657220696d706c656d656e746572000000000000000000000000602082015250565b6000613c61603483612807565b9150613c6c82613c05565b604082019050919050565b60006020820190508181036000830152613c9081613c54565b9050919050565b7f455243313135353a204552433131353552656365697665722072656a6563746560008201527f6420746f6b656e73000000000000000000000000000000000000000000000000602082015250565b6000613cf3602883612807565b9150613cfe82613c97565b604082019050919050565b60006020820190508181036000830152613d2281613ce6565b9050919050565b600060a082019050613d3e60008301886128ae565b613d4b60208301876128ae565b613d5860408301866126ea565b613d6560608301856126ea565b8181036080830152613d778184613a63565b9050969550505050505056fea26469706673582212201b69f0409872802bd3ed23925798d74f32c31a101392dbf7fe744929a3704d5464736f6c6343000812003368747470733a2f2f697066732e696f2f697066732f62616679626569653576766636773674366276766c747636346f726f6a696e693263696574706e3264716566653573663277326f6f3761366d6f792f6d656e757b69647d2e6a736f6e",
  "immutableReferences": {},
  "source": "//SPDX-License-Identifier: MIT\r\n\r\npragma solidity ^0.8.0;\r\n\r\n// Importar bibliotecas, en este caso estn descargadas en el disco local pero pueden referenciarse de OpenZeppelin\r\nimport \"../node_modules/@openzeppelin/contracts/token/ERC1155/extensions/ERC1155Supply.sol\";\r\nimport \"../node_modules/@openzeppelin/contracts/token/ERC1155/ERC1155.sol\";\r\nimport \"../node_modules/@openzeppelin/contracts/access/Ownable.sol\";\r\nimport \"../node_modules/@openzeppelin/contracts/utils/Strings.sol\";\r\n\r\n// Contrato inteligente para crear la funcionalidad de una web donde una empresa de comida puede vender mens a clientes \r\ncontract MiniBar is ERC1155, Ownable {\r\n    \r\n    address payable private empresa_catering;\r\n    address payable public proveedor = payable(0x7BFa68d89F6208c3fCb2Df23772f5eA8Db9a64E7);\r\n    uint256 private contador_comensales = 1;\r\n    uint public precioFabrica = 20000000000000000;\r\n    uint public precioPublico = 60000000000000000;\r\n\r\n    mapping(uint256 => string) public uri_menu;\r\n    mapping(address => uint256) public comensales;\r\n    mapping(address => mapping(uint256 => uint256)) private compra_de_cada_plato;\r\n    mapping(uint256 => uint256) public menus_vendidos;\r\n    mapping(uint256 => uint256) public menus_en_venta;\r\n\r\n    uint256 public constant numero_1 = 1;\r\n    uint256 public constant numero_2 = 2;\r\n    uint256 public constant numero_3 = 3;\r\n    uint256 public constant numero_4 = 4;\r\n    uint256 public constant numero_5 = 5;\r\n\r\n    constructor() payable ERC1155(\"https://ipfs.io/ipfs/bafybeie5vvf6w6t6bvvltv64orojini2cietpn2dqefe5sf2w2oo7a6moy/menu{id}.json\") {\r\n        \r\n        empresa_catering = payable(msg.sender);\r\n        uint precioApertura = precioFabrica * 25;\r\n        require(msg.value >= precioApertura, \"El proveedor de alimentos necesita mas dinero\");\r\n        proveedor.transfer(msg.value);\r\n        for (uint256 menu = 1; menu < 6; menu++){\r\n            _mint(empresa_catering, menu, 5, \"\");\r\n            uri_menu[menu] = uri(menu);\r\n            menus_vendidos[menu] = 0;\r\n            menus_en_venta[menu] = balanceOf(empresa_catering, menu);\r\n        }\r\n        \r\n    }\r\n\r\n    function crear_menu(uint256 menu_a_crear, uint256 cantidad_a_crear) public payable onlyOwner{\r\n        uint precioPedido = precioFabrica * cantidad_a_crear;\r\n        require(msg.value >= precioPedido, \"El proveedor de alimentos necesita mas dinero\");\r\n        proveedor.transfer(msg.value);\r\n        _mint(empresa_catering, menu_a_crear, cantidad_a_crear, \"\");\r\n        \r\n    }\r\n\r\n    function vender_menu(uint256 menu, uint256 cantidad) public payable{\r\n        require(balanceOf(empresa_catering, menu) >= cantidad, \"Cantidad no disponible de ese menu\");\r\n        uint precioPedido = precioPublico * cantidad;\r\n        require(msg.value >= precioPedido, \"El valor minimo para comprar tokens es mayor\");\r\n        \r\n        confiar_en_cliente(msg.sender, true);\r\n        safeTransferFrom(empresa_catering, msg.sender, menu, cantidad, \"\");       \r\n        empresa_catering.transfer(msg.value); \r\n\r\n        asignar_id();\r\n        compra_de_cada_plato[payable(msg.sender)][menu] += cantidad;\r\n        menus_vendidos[menu] += cantidad;\r\n\r\n    }\r\n\r\n    function confiar_en_cliente(address operator, bool approved) public virtual {\r\n        _setApprovalForAll(empresa_catering, operator, approved);\r\n    }\r\n\r\n    function asignar_id() public payable{\r\n        uint256 id_existente = comensales[payable(msg.sender)];\r\n        if (id_existente == 0) {\r\n            comensales[payable(msg.sender)] = contador_comensales; contador_comensales++;\r\n            for(uint256 menu = 1; menu < 6; menu++){\r\n            compra_de_cada_plato[payable(msg.sender)][menu] = 0;\r\n            }\r\n        }        \r\n    }\r\n\r\n    //funciones para conseguir informacin\r\n\r\n    function uri(uint256 id_menu) override public pure returns (string memory) {\r\n        return string(\r\n            abi.encodePacked(\r\n                \"https://ipfs.io/ipfs/bafybeib7ea7ibfsbi4ki2x5bynv5vpruxn757icmbm4qlskgdgve5q6hlm/numero_\",\r\n                Strings.toString(id_menu),\".json\"\r\n            )\r\n        );\r\n    }\r\n\r\n    function obtener_empresa_catering() external view returns (address) {\r\n        return empresa_catering;\r\n    }\r\n\r\n    function listar_menus_en_venta() public view returns (uint256[] memory){\r\n        uint256[] memory menus_de_empresa = new uint256[](5);\r\n        for (uint256 i = 0; i < 5; i++){\r\n            menus_de_empresa[i] = balanceOf(empresa_catering, i+1);\r\n        }\r\n        return menus_de_empresa;\r\n    }\r\n\r\n    function listar_menus_de_un_cliente() public view returns (uint256[] memory){\r\n        uint256[] memory menus_de_cliente = new uint256[](5);\r\n        for (uint256 i = 0; i < 5; i++){\r\n            menus_de_cliente[i] = balanceOf(msg.sender, i+1);\r\n        }\r\n        return menus_de_cliente;\r\n    }\r\n\r\n    function listar_menus_vendidos() public view returns (uint256[] memory){\r\n        uint256[] memory menus_vendidos_array = new uint256[](5);\r\n        for (uint256 i = 0; i < 5; i++){\r\n            menus_vendidos_array[i] = menus_vendidos[i+1];\r\n        }\r\n        return menus_vendidos_array;\r\n    }\r\n\r\n}",
  "sourcePath": "C:\\Users\\Usuario\\Desktop\\TFG_web3\\contracts\\MiniBar.sol",
  "compiler": {
    "name": "solc",
    "version": "0.8.18+commit.87f61d96.Emscripten.clang"
  },
  "schemaVersion": "3.4.12",
  "updatedAt": "2023-08-31T20:50:01.773Z",
  "networkType": "ethereum",
  "devdoc": {
    "events": {
      "ApprovalForAll(address,address,bool)": {
        "details": "Emitted when `account` grants or revokes permission to `operator` to transfer their tokens, according to `approved`."
      },
      "TransferBatch(address,address,address,uint256[],uint256[])": {
        "details": "Equivalent to multiple {TransferSingle} events, where `operator`, `from` and `to` are the same for all transfers."
      },
      "TransferSingle(address,address,address,uint256,uint256)": {
        "details": "Emitted when `value` tokens of token type `id` are transferred from `from` to `to` by `operator`."
      },
      "URI(string,uint256)": {
        "details": "Emitted when the URI for token type `id` changes to `value`, if it is a non-programmatic URI. If an {URI} event was emitted for `id`, the standard https://eips.ethereum.org/EIPS/eip-1155#metadata-extensions[guarantees] that `value` will equal the value returned by {IERC1155MetadataURI-uri}."
      }
    },
    "kind": "dev",
    "methods": {
      "balanceOf(address,uint256)": {
        "details": "See {IERC1155-balanceOf}. Requirements: - `account` cannot be the zero address."
      },
      "balanceOfBatch(address[],uint256[])": {
        "details": "See {IERC1155-balanceOfBatch}. Requirements: - `accounts` and `ids` must have the same length."
      },
      "isApprovedForAll(address,address)": {
        "details": "See {IERC1155-isApprovedForAll}."
      },
      "owner()": {
        "details": "Returns the address of the current owner."
      },
      "renounceOwnership()": {
        "details": "Leaves the contract without owner. It will not be possible to call `onlyOwner` functions anymore. Can only be called by the current owner. NOTE: Renouncing ownership will leave the contract without an owner, thereby removing any functionality that is only available to the owner."
      },
      "safeBatchTransferFrom(address,address,uint256[],uint256[],bytes)": {
        "details": "See {IERC1155-safeBatchTransferFrom}."
      },
      "safeTransferFrom(address,address,uint256,uint256,bytes)": {
        "details": "See {IERC1155-safeTransferFrom}."
      },
      "setApprovalForAll(address,bool)": {
        "details": "See {IERC1155-setApprovalForAll}."
      },
      "supportsInterface(bytes4)": {
        "details": "See {IERC165-supportsInterface}."
      },
      "transferOwnership(address)": {
        "details": "Transfers ownership of the contract to a new account (`newOwner`). Can only be called by the current owner."
      }
    },
    "version": 1
  },
  "userdoc": {
    "kind": "user",
    "methods": {},
    "version": 1
  }
}